{
  "contractName": "DEX",
  "abi": [
    {
      "inputs": [
        {
          "internalType": "address",
          "name": "tokenAddress",
          "type": "address"
        }
      ],
      "stateMutability": "nonpayable",
      "type": "constructor"
    },
    {
      "anonymous": false,
      "inputs": [
        {
          "indexed": true,
          "internalType": "address",
          "name": "_from",
          "type": "address"
        },
        {
          "indexed": false,
          "internalType": "uint256",
          "name": "_eth_bought",
          "type": "uint256"
        }
      ],
      "name": "BzkToEthSwap",
      "type": "event"
    },
    {
      "anonymous": false,
      "inputs": [
        {
          "indexed": true,
          "internalType": "address",
          "name": "_from",
          "type": "address"
        },
        {
          "indexed": false,
          "internalType": "uint256",
          "name": "_liquidity_minted",
          "type": "uint256"
        }
      ],
      "name": "DepositLiquidity",
      "type": "event"
    },
    {
      "anonymous": false,
      "inputs": [
        {
          "indexed": true,
          "internalType": "address",
          "name": "_from",
          "type": "address"
        },
        {
          "indexed": false,
          "internalType": "uint256",
          "name": "_tokens_bought",
          "type": "uint256"
        }
      ],
      "name": "EthToBzkSwap",
      "type": "event"
    },
    {
      "anonymous": false,
      "inputs": [
        {
          "indexed": true,
          "internalType": "address",
          "name": "_from",
          "type": "address"
        },
        {
          "indexed": false,
          "internalType": "uint256",
          "name": "_value",
          "type": "uint256"
        },
        {
          "indexed": false,
          "internalType": "uint256",
          "name": "_tokens",
          "type": "uint256"
        }
      ],
      "name": "Initialization",
      "type": "event"
    },
    {
      "anonymous": false,
      "inputs": [
        {
          "indexed": true,
          "internalType": "address",
          "name": "previousOwner",
          "type": "address"
        },
        {
          "indexed": true,
          "internalType": "address",
          "name": "newOwner",
          "type": "address"
        }
      ],
      "name": "OwnershipTransferred",
      "type": "event"
    },
    {
      "anonymous": false,
      "inputs": [
        {
          "indexed": true,
          "internalType": "address",
          "name": "_from",
          "type": "address"
        },
        {
          "indexed": false,
          "internalType": "uint256",
          "name": "_eth_withdrawn",
          "type": "uint256"
        },
        {
          "indexed": false,
          "internalType": "uint256",
          "name": "_token_withdrawn",
          "type": "uint256"
        }
      ],
      "name": "WithdrawLiquidity",
      "type": "event"
    },
    {
      "inputs": [
        {
          "internalType": "address",
          "name": "",
          "type": "address"
        }
      ],
      "name": "liquidity",
      "outputs": [
        {
          "internalType": "uint256",
          "name": "",
          "type": "uint256"
        }
      ],
      "stateMutability": "view",
      "type": "function",
      "constant": true
    },
    {
      "inputs": [],
      "name": "owner",
      "outputs": [
        {
          "internalType": "address",
          "name": "",
          "type": "address"
        }
      ],
      "stateMutability": "view",
      "type": "function",
      "constant": true
    },
    {
      "inputs": [],
      "name": "renounceOwnership",
      "outputs": [],
      "stateMutability": "nonpayable",
      "type": "function"
    },
    {
      "inputs": [],
      "name": "totalLiquidity",
      "outputs": [
        {
          "internalType": "uint256",
          "name": "",
          "type": "uint256"
        }
      ],
      "stateMutability": "view",
      "type": "function",
      "constant": true
    },
    {
      "inputs": [
        {
          "internalType": "address",
          "name": "newOwner",
          "type": "address"
        }
      ],
      "name": "transferOwnership",
      "outputs": [],
      "stateMutability": "nonpayable",
      "type": "function"
    },
    {
      "inputs": [
        {
          "internalType": "uint256",
          "name": "tokens",
          "type": "uint256"
        }
      ],
      "name": "init",
      "outputs": [
        {
          "internalType": "uint256",
          "name": "",
          "type": "uint256"
        }
      ],
      "stateMutability": "payable",
      "type": "function",
      "payable": true
    },
    {
      "inputs": [
        {
          "internalType": "uint256",
          "name": "input_amount",
          "type": "uint256"
        },
        {
          "internalType": "uint256",
          "name": "input_reserve",
          "type": "uint256"
        },
        {
          "internalType": "uint256",
          "name": "output_reserve",
          "type": "uint256"
        }
      ],
      "name": "price",
      "outputs": [
        {
          "internalType": "uint256",
          "name": "",
          "type": "uint256"
        }
      ],
      "stateMutability": "pure",
      "type": "function",
      "constant": true
    },
    {
      "inputs": [],
      "name": "ethToBazooka",
      "outputs": [
        {
          "internalType": "uint256",
          "name": "",
          "type": "uint256"
        }
      ],
      "stateMutability": "payable",
      "type": "function",
      "payable": true
    },
    {
      "inputs": [
        {
          "internalType": "uint256",
          "name": "tokens",
          "type": "uint256"
        }
      ],
      "name": "bazookaToEth",
      "outputs": [
        {
          "internalType": "uint256",
          "name": "",
          "type": "uint256"
        }
      ],
      "stateMutability": "nonpayable",
      "type": "function"
    },
    {
      "inputs": [],
      "name": "depositLiquidity",
      "outputs": [
        {
          "internalType": "uint256",
          "name": "",
          "type": "uint256"
        }
      ],
      "stateMutability": "payable",
      "type": "function",
      "payable": true
    },
    {
      "inputs": [
        {
          "internalType": "uint256",
          "name": "amount",
          "type": "uint256"
        }
      ],
      "name": "withdrawLiquidity",
      "outputs": [
        {
          "internalType": "uint256",
          "name": "",
          "type": "uint256"
        },
        {
          "internalType": "uint256",
          "name": "",
          "type": "uint256"
        }
      ],
      "stateMutability": "nonpayable",
      "type": "function"
    }
  ],
  "bytecode": "0x60806040523480156200001157600080fd5b5060405162001b6a38038062001b6a8339818101604052810190620000379190620001d5565b620000576200004b6200009f60201b60201c565b620000a760201b60201c565b80600160006101000a81548173ffffffffffffffffffffffffffffffffffffffff021916908373ffffffffffffffffffffffffffffffffffffffff1602179055505062000207565b600033905090565b60008060009054906101000a900473ffffffffffffffffffffffffffffffffffffffff169050816000806101000a81548173ffffffffffffffffffffffffffffffffffffffff021916908373ffffffffffffffffffffffffffffffffffffffff1602179055508173ffffffffffffffffffffffffffffffffffffffff168173ffffffffffffffffffffffffffffffffffffffff167f8be0079c531659141344cd1fd0a4f28419497f9722a3daafe3b4186f6b6457e060405160405180910390a35050565b600080fd5b600073ffffffffffffffffffffffffffffffffffffffff82169050919050565b60006200019d8262000170565b9050919050565b620001af8162000190565b8114620001bb57600080fd5b50565b600081519050620001cf81620001a4565b92915050565b600060208284031215620001ee57620001ed6200016b565b5b6000620001fe84828501620001be565b91505092915050565b61195380620002176000396000f3fe60806040526004361061009c5760003560e01c80638da5cb5b116100645780638da5cb5b1461019b57806396cb2f15146101c6578063b7b0422d146101e4578063b8c876b114610214578063ca593c5914610251578063f2fde38b1461026f5761009c565b80630a861f2a146100a157806315770f92146100df5780632071a9f41461010a578063715018a61461014757806375140e2e1461015e575b600080fd5b3480156100ad57600080fd5b506100c860048036038101906100c39190611334565b610298565b6040516100d6929190611370565b60405180910390f35b3480156100eb57600080fd5b506100f46105e4565b6040516101019190611399565b60405180910390f35b34801561011657600080fd5b50610131600480360381019061012c91906113b4565b6105ea565b60405161013e9190611399565b60405180910390f35b34801561015357600080fd5b5061015c61065e565b005b34801561016a57600080fd5b5061018560048036038101906101809190611334565b6106e6565b6040516101929190611399565b60405180910390f35b3480156101a757600080fd5b506101b0610943565b6040516101bd9190611448565b60405180910390f35b6101ce61096c565b6040516101db9190611399565b60405180910390f35b6101fe60048036038101906101f99190611334565b610b90565b60405161020b9190611399565b60405180910390f35b34801561022057600080fd5b5061023b6004803603810190610236919061148f565b610db4565b6040516102489190611399565b60405180910390f35b610259610dcc565b6040516102669190611399565b60405180910390f35b34801561027b57600080fd5b506102966004803603810190610291919061148f565b6110f3565b005b6000806000600254116102e0576040517f08c379a00000000000000000000000000000000000000000000000000000000081526004016102d790611519565b60405180910390fd5b6000600160009054906101000a900473ffffffffffffffffffffffffffffffffffffffff1673ffffffffffffffffffffffffffffffffffffffff166370a08231306040518263ffffffff1660e01b815260040161033d9190611448565b60206040518083038186803b15801561035557600080fd5b505afa158015610369573d6000803e3d6000fd5b505050506040513d601f19601f8201168201806040525081019061038d919061154e565b905060006002546103a747876111eb90919063ffffffff16565b6103b191906115d9565b905060006002546103cb84886111eb90919063ffffffff16565b6103d591906115d9565b905061042982600360003373ffffffffffffffffffffffffffffffffffffffff1673ffffffffffffffffffffffffffffffffffffffff1681526020019081526020016000205461120190919063ffffffff16565b600360003373ffffffffffffffffffffffffffffffffffffffff1673ffffffffffffffffffffffffffffffffffffffff168152602001908152602001600020819055506104818260025461120190919063ffffffff16565b6002819055503373ffffffffffffffffffffffffffffffffffffffff166108fc839081150290604051600060405180830381858888f193505050501580156104cd573d6000803e3d6000fd5b50600160009054906101000a900473ffffffffffffffffffffffffffffffffffffffff1673ffffffffffffffffffffffffffffffffffffffff1663a9059cbb33836040518363ffffffff1660e01b815260040161052b92919061160a565b602060405180830381600087803b15801561054557600080fd5b505af1158015610559573d6000803e3d6000fd5b505050506040513d601f19601f8201168201806040525081019061057d919061166b565b61058657600080fd5b3373ffffffffffffffffffffffffffffffffffffffff167fac927268ea9ae2e55027e6ab727fc2db8e3ea48c56c658223a1074567e4298c083836040516105ce929190611370565b60405180910390a2818194509450505050915091565b60025481565b6000806106026103e5866111eb90919063ffffffff16565b9050600061061984836111eb90919063ffffffff16565b90506000610644836106366103e8896111eb90919063ffffffff16565b61121790919063ffffffff16565b9050808261065291906115d9565b93505050509392505050565b61066661122d565b73ffffffffffffffffffffffffffffffffffffffff16610684610943565b73ffffffffffffffffffffffffffffffffffffffff16146106da576040517f08c379a00000000000000000000000000000000000000000000000000000000081526004016106d1906116e4565b60405180910390fd5b6106e46000611235565b565b6000806002541161072c576040517f08c379a000000000000000000000000000000000000000000000000000000000815260040161072390611519565b60405180910390fd5b6000600160009054906101000a900473ffffffffffffffffffffffffffffffffffffffff1673ffffffffffffffffffffffffffffffffffffffff166370a08231306040518263ffffffff1660e01b81526004016107899190611448565b60206040518083038186803b1580156107a157600080fd5b505afa1580156107b5573d6000803e3d6000fd5b505050506040513d601f19601f820116820180604052508101906107d9919061154e565b905060006107e88483476105ea565b90503373ffffffffffffffffffffffffffffffffffffffff166108fc829081150290604051600060405180830381858888f19350505050158015610830573d6000803e3d6000fd5b50600160009054906101000a900473ffffffffffffffffffffffffffffffffffffffff1673ffffffffffffffffffffffffffffffffffffffff166323b872dd3330876040518463ffffffff1660e01b815260040161089093929190611704565b602060405180830381600087803b1580156108aa57600080fd5b505af11580156108be573d6000803e3d6000fd5b505050506040513d601f19601f820116820180604052508101906108e2919061166b565b6108eb57600080fd5b3373ffffffffffffffffffffffffffffffffffffffff167fd92a664879a295f4e2cd59256a9f84ee64b33827e22c114c4b59d403caf90e8f826040516109319190611399565b60405180910390a28092505050919050565b60008060009054906101000a900473ffffffffffffffffffffffffffffffffffffffff16905090565b600080600254116109b2576040517f08c379a00000000000000000000000000000000000000000000000000000000081526004016109a990611519565b60405180910390fd5b6000600160009054906101000a900473ffffffffffffffffffffffffffffffffffffffff1673ffffffffffffffffffffffffffffffffffffffff166370a08231306040518263ffffffff1660e01b8152600401610a0f9190611448565b60206040518083038186803b158015610a2757600080fd5b505afa158015610a3b573d6000803e3d6000fd5b505050506040513d601f19601f82011682018060405250810190610a5f919061154e565b90506000610a8034610a7a344761120190919063ffffffff16565b846105ea565b9050600160009054906101000a900473ffffffffffffffffffffffffffffffffffffffff1673ffffffffffffffffffffffffffffffffffffffff1663a9059cbb33836040518363ffffffff1660e01b8152600401610adf92919061160a565b602060405180830381600087803b158015610af957600080fd5b505af1158015610b0d573d6000803e3d6000fd5b505050506040513d601f19601f82011682018060405250810190610b31919061166b565b610b3a57600080fd5b3373ffffffffffffffffffffffffffffffffffffffff167fc1e2d324937867b7b517c3e7d7093054aa924269f8ea77a5648c3c7949eb8a2982604051610b809190611399565b60405180910390a2809250505090565b6000610b9a61122d565b73ffffffffffffffffffffffffffffffffffffffff16610bb8610943565b73ffffffffffffffffffffffffffffffffffffffff1614610c0e576040517f08c379a0000000000000000000000000000000000000000000000000000000008152600401610c05906116e4565b60405180910390fd5b600060025414610c53576040517f08c379a0000000000000000000000000000000000000000000000000000000008152600401610c4a90611787565b60405180910390fd5b34600281905550600254600360003373ffffffffffffffffffffffffffffffffffffffff1673ffffffffffffffffffffffffffffffffffffffff16815260200190815260200160002081905550600160009054906101000a900473ffffffffffffffffffffffffffffffffffffffff1673ffffffffffffffffffffffffffffffffffffffff166323b872dd3330856040518463ffffffff1660e01b8152600401610cff93929190611704565b602060405180830381600087803b158015610d1957600080fd5b505af1158015610d2d573d6000803e3d6000fd5b505050506040513d601f19601f82011682018060405250810190610d51919061166b565b610d5a57600080fd5b3373ffffffffffffffffffffffffffffffffffffffff167f3cb2dea39660d44f34f4946acef67c214cdb47382f25711c64485cdd4974ca113484604051610da2929190611370565b60405180910390a26002549050919050565b60036020528060005260406000206000915090505481565b60008060025411610e12576040517f08c379a0000000000000000000000000000000000000000000000000000000008152600401610e0990611519565b60405180910390fd5b6000610e27344761120190919063ffffffff16565b90506000600160009054906101000a900473ffffffffffffffffffffffffffffffffffffffff1673ffffffffffffffffffffffffffffffffffffffff166370a08231306040518263ffffffff1660e01b8152600401610e869190611448565b60206040518083038186803b158015610e9e57600080fd5b505afa158015610eb2573d6000803e3d6000fd5b505050506040513d601f19601f82011682018060405250810190610ed6919061154e565b90506000610f0b600184610ef385346111eb90919063ffffffff16565b610efd91906115d9565b61121790919063ffffffff16565b9050600083610f25600254346111eb90919063ffffffff16565b610f2f91906115d9565b9050610f8381600360003373ffffffffffffffffffffffffffffffffffffffff1673ffffffffffffffffffffffffffffffffffffffff1681526020019081526020016000205461121790919063ffffffff16565b600360003373ffffffffffffffffffffffffffffffffffffffff1673ffffffffffffffffffffffffffffffffffffffff16815260200190815260200160002081905550610fdb8160025461121790919063ffffffff16565b600281905550600160009054906101000a900473ffffffffffffffffffffffffffffffffffffffff1673ffffffffffffffffffffffffffffffffffffffff166323b872dd3330856040518463ffffffff1660e01b815260040161104093929190611704565b602060405180830381600087803b15801561105a57600080fd5b505af115801561106e573d6000803e3d6000fd5b505050506040513d601f19601f82011682018060405250810190611092919061166b565b61109b57600080fd5b3373ffffffffffffffffffffffffffffffffffffffff167f3bdb4d376f46aac1bdcda94b03200364052b278ed93865d759bf61452bfabdba826040516110e19190611399565b60405180910390a28094505050505090565b6110fb61122d565b73ffffffffffffffffffffffffffffffffffffffff16611119610943565b73ffffffffffffffffffffffffffffffffffffffff161461116f576040517f08c379a0000000000000000000000000000000000000000000000000000000008152600401611166906116e4565b60405180910390fd5b600073ffffffffffffffffffffffffffffffffffffffff168173ffffffffffffffffffffffffffffffffffffffff1614156111df576040517f08c379a00000000000000000000000000000000000000000000000000000000081526004016111d690611819565b60405180910390fd5b6111e881611235565b50565b600081836111f99190611839565b905092915050565b6000818361120f9190611893565b905092915050565b6000818361122591906118c7565b905092915050565b600033905090565b60008060009054906101000a900473ffffffffffffffffffffffffffffffffffffffff169050816000806101000a81548173ffffffffffffffffffffffffffffffffffffffff021916908373ffffffffffffffffffffffffffffffffffffffff1602179055508173ffffffffffffffffffffffffffffffffffffffff168173ffffffffffffffffffffffffffffffffffffffff167f8be0079c531659141344cd1fd0a4f28419497f9722a3daafe3b4186f6b6457e060405160405180910390a35050565b600080fd5b6000819050919050565b611311816112fe565b811461131c57600080fd5b50565b60008135905061132e81611308565b92915050565b60006020828403121561134a576113496112f9565b5b60006113588482850161131f565b91505092915050565b61136a816112fe565b82525050565b60006040820190506113856000830185611361565b6113926020830184611361565b9392505050565b60006020820190506113ae6000830184611361565b92915050565b6000806000606084860312156113cd576113cc6112f9565b5b60006113db8682870161131f565b93505060206113ec8682870161131f565b92505060406113fd8682870161131f565b9150509250925092565b600073ffffffffffffffffffffffffffffffffffffffff82169050919050565b600061143282611407565b9050919050565b61144281611427565b82525050565b600060208201905061145d6000830184611439565b92915050565b61146c81611427565b811461147757600080fd5b50565b60008135905061148981611463565b92915050565b6000602082840312156114a5576114a46112f9565b5b60006114b38482850161147a565b91505092915050565b600082825260208201905092915050565b7f444558206973206e6f7420696e697469616c697a656400000000000000000000600082015250565b60006115036016836114bc565b915061150e826114cd565b602082019050919050565b60006020820190508181036000830152611532816114f6565b9050919050565b60008151905061154881611308565b92915050565b600060208284031215611564576115636112f9565b5b600061157284828501611539565b91505092915050565b7f4e487b7100000000000000000000000000000000000000000000000000000000600052601260045260246000fd5b7f4e487b7100000000000000000000000000000000000000000000000000000000600052601160045260246000fd5b60006115e4826112fe565b91506115ef836112fe565b9250826115ff576115fe61157b565b5b828204905092915050565b600060408201905061161f6000830185611439565b61162c6020830184611361565b9392505050565b60008115159050919050565b61164881611633565b811461165357600080fd5b50565b6000815190506116658161163f565b92915050565b600060208284031215611681576116806112f9565b5b600061168f84828501611656565b91505092915050565b7f4f776e61626c653a2063616c6c6572206973206e6f7420746865206f776e6572600082015250565b60006116ce6020836114bc565b91506116d982611698565b602082019050919050565b600060208201905081810360008301526116fd816116c1565b9050919050565b60006060820190506117196000830186611439565b6117266020830185611439565b6117336040830184611361565b949350505050565b7f44455820697320616c726561647920696e697469616c697a6564000000000000600082015250565b6000611771601a836114bc565b915061177c8261173b565b602082019050919050565b600060208201905081810360008301526117a081611764565b9050919050565b7f4f776e61626c653a206e6577206f776e657220697320746865207a65726f206160008201527f6464726573730000000000000000000000000000000000000000000000000000602082015250565b60006118036026836114bc565b915061180e826117a7565b604082019050919050565b60006020820190508181036000830152611832816117f6565b9050919050565b6000611844826112fe565b915061184f836112fe565b9250817fffffffffffffffffffffffffffffffffffffffffffffffffffffffffffffffff0483118215151615611888576118876115aa565b5b828202905092915050565b600061189e826112fe565b91506118a9836112fe565b9250828210156118bc576118bb6115aa565b5b828203905092915050565b60006118d2826112fe565b91506118dd836112fe565b9250827fffffffffffffffffffffffffffffffffffffffffffffffffffffffffffffffff03821115611912576119116115aa565b5b82820190509291505056fea2646970667358221220476d04fbd349191af658a2171ea2396753361251cf54c143dd84473bcccf2d9d64736f6c63430008090033",
  "immutableReferences": {},
  "source": "//SPDX-License-Identifier: MIT\npragma solidity 0.8.9;\n\n/// Importing ERC20 interface\nimport \"@openzeppelin/contracts/token/ERC20/IERC20.sol\";\n/// Import Ownable contract to extend Dex contract functionality to have ownership management\nimport \"@openzeppelin/contracts/access/Ownable.sol\";\nimport \"@openzeppelin/contracts/utils/math/SafeMath.sol\";\n\n/// @title Simple Decentralized Exchange smart contract\n/// @author Szczepan Barszczowski\n/// @notice This contract gives you ability to trade between Eth and Bazooka coins\n/// @dev All function calls are currently implemented without side effects\n/// @custom:experimental This is an experimental contract\n\ncontract DEX is Ownable {\n    using SafeMath for uint256;\n\n    IERC20 bazookas;\n\n    uint256 public totalLiquidity;\n    mapping (address => uint256) public liquidity;\n\n    // EVENTS\n    event Initialization(address indexed _from, uint256 _value, uint256 _tokens);\n    event EthToBzkSwap(address indexed _from, uint256 _tokens_bought);\n    event BzkToEthSwap(address indexed _from, uint256 _eth_bought);\n    event DepositLiquidity(address indexed _from, uint256 _liquidity_minted);\n    event WithdrawLiquidity(address indexed _from, uint256 _eth_withdrawn, uint _token_withdrawn);\n\n    // Checks if dex is already initialized with liquidity.\n    modifier checkIfInitialized {\n      require(totalLiquidity > 0, \"DEX is not initialized\");\n      _;\n    }\n\n    constructor(address tokenAddress) public {\n      bazookas = IERC20(tokenAddress);\n    }\n\n    /// @notice Initializes DEX with liquidity\n    /// @dev User should have BZX tokens to properly initialize exchange. Tokens may be acquired from a faucet\n    /// @param tokens, Number of BZK tokens to initialize dex with\n    /// @return Returns total liquidity of a contract\n    function init(uint256 tokens) public payable onlyOwner returns (uint256) {\n      require(totalLiquidity == 0, \"DEX is already initialized\");\n      totalLiquidity = msg.value;\n      liquidity[msg.sender] = totalLiquidity;\n      require(bazookas.transferFrom(msg.sender, address(this), tokens));\n      emit Initialization(msg.sender, msg.value, tokens);\n      return totalLiquidity;\n    }\n\n    /// @notice Calculates price of a pair based on current reserve\n    /// @dev This formula x * y = k is used to maintain 1:1 ratio between token pair\n    /// @param input_amount, amount of input asset\n    /// @param input_reserve, amount of input reserve\n    /// @param output_reserve, amount of output reserve\n    /// @return Price of an asset\n    function price(uint256 input_amount, uint256 input_reserve, uint256 output_reserve) public pure returns (uint256) {\n      uint256 input_amount_with_fee = input_amount.mul(997);\n      uint256 numerator = input_amount_with_fee.mul(output_reserve);\n      uint256 denominator = input_reserve.mul(1000).add(input_amount_with_fee);\n      return numerator / denominator;\n    }\n\n    /// @notice Change ETH for BZK\n    /// @return Amount of tokens swapped.\n    function ethToBazooka() public payable checkIfInitialized returns (uint256) {\n      uint256 token_reserve = bazookas.balanceOf(address(this));\n      uint256 tokens_bought = price(msg.value, address(this).balance.sub(msg.value), token_reserve);\n      require(bazookas.transfer(msg.sender, tokens_bought));\n      emit EthToBzkSwap(msg.sender, tokens_bought);\n      return tokens_bought;\n    }\n\n    /// @notice Change BZK for ETH\n    /// @return Amount of tokens swapped.\n    function bazookaToEth(uint256 tokens) public checkIfInitialized returns (uint256) {\n      uint256 token_reserve = bazookas.balanceOf(address(this));\n      uint256 eth_bought = price(tokens, token_reserve, address(this).balance);\n      payable(msg.sender).transfer(eth_bought);\n      require(bazookas.transferFrom(msg.sender, address(this), tokens));\n      emit BzkToEthSwap(msg.sender, eth_bought);\n      return eth_bought;\n    }\n\n    /// @notice Lets you deposit liquidity to an exchange\n    /// @return Returns amount of liquidity minted from this operation\n    function depositLiquidity() public payable checkIfInitialized returns (uint256) {\n      uint256 eth_reserve = address(this).balance.sub(msg.value);\n      uint256 token_reserve = bazookas.balanceOf(address(this));\n      uint256 token_amount = (msg.value.mul(token_reserve) / eth_reserve).add(1);\n      uint256 liquidity_minted = msg.value.mul(totalLiquidity) / eth_reserve;\n      liquidity[msg.sender] = liquidity[msg.sender].add(liquidity_minted);\n      totalLiquidity = totalLiquidity.add(liquidity_minted);\n      require(bazookas.transferFrom(msg.sender, address(this), token_amount));\n      emit DepositLiquidity(msg.sender, liquidity_minted);\n      return liquidity_minted;\n    }\n\n    /// @notice Lets you withdraw liquidity from a contract\n    /// @dev The actual amount of ETH and tokens a liquidity provider withdraws will be higher than what they deposited because of the 0.3% fees collected from each trade\n    /// @return Amount of ETH withdrawn and BZX withdrawn\n    function withdrawLiquidity(uint256 amount) public checkIfInitialized returns (uint256, uint256) {\n      uint256 token_reserve = bazookas.balanceOf(address(this));\n      uint256 eth_amount = amount.mul(address(this).balance) / totalLiquidity;\n      uint256 token_amount = amount.mul(token_reserve) / totalLiquidity;\n      liquidity[msg.sender] = liquidity[msg.sender].sub(eth_amount);\n      totalLiquidity = totalLiquidity.sub(eth_amount);\n      payable(msg.sender).transfer(eth_amount);\n      require(bazookas.transfer(msg.sender, token_amount));\n      emit WithdrawLiquidity(msg.sender, eth_amount, token_amount);\n      return (eth_amount, token_amount);\n    }\n}\n",
  "sourcePath": "/Users/nabuchodonozor/Desktop/Projekty/truffle-playground/blockchain-developer-bootcamp-final-project/contracts/DEX.sol",
  "compiler": {
    "name": "solc",
    "version": "0.8.9+commit.e5eed63a.Emscripten.clang"
  },
  "schemaVersion": "3.4.3",
  "updatedAt": "2021-11-27T22:41:31.701Z",
  "networkType": "ethereum",
  "devdoc": {
    "author": "Szczepan Barszczowski",
    "custom:experimental": "This is an experimental contract",
    "details": "All function calls are currently implemented without side effects",
    "kind": "dev",
    "methods": {
      "bazookaToEth(uint256)": {
        "returns": {
          "_0": "Amount of tokens swapped."
        }
      },
      "depositLiquidity()": {
        "returns": {
          "_0": "Returns amount of liquidity minted from this operation"
        }
      },
      "ethToBazooka()": {
        "returns": {
          "_0": "Amount of tokens swapped."
        }
      },
      "init(uint256)": {
        "details": "User should have BZX tokens to properly initialize exchange. Tokens may be acquired from a faucet",
        "params": {
          "tokens": ", Number of BZK tokens to initialize dex with"
        },
        "returns": {
          "_0": "Returns total liquidity of a contract"
        }
      },
      "owner()": {
        "details": "Returns the address of the current owner."
      },
      "price(uint256,uint256,uint256)": {
        "details": "This formula x * y = k is used to maintain 1:1 ratio between token pair",
        "params": {
          "input_amount": ", amount of input asset",
          "input_reserve": ", amount of input reserve",
          "output_reserve": ", amount of output reserve"
        },
        "returns": {
          "_0": "Price of an asset"
        }
      },
      "renounceOwnership()": {
        "details": "Leaves the contract without owner. It will not be possible to call `onlyOwner` functions anymore. Can only be called by the current owner. NOTE: Renouncing ownership will leave the contract without an owner, thereby removing any functionality that is only available to the owner."
      },
      "transferOwnership(address)": {
        "details": "Transfers ownership of the contract to a new account (`newOwner`). Can only be called by the current owner."
      },
      "withdrawLiquidity(uint256)": {
        "details": "The actual amount of ETH and tokens a liquidity provider withdraws will be higher than what they deposited because of the 0.3% fees collected from each trade",
        "returns": {
          "_0": "Amount of ETH withdrawn and BZX withdrawn"
        }
      }
    },
    "title": "Simple Decentralized Exchange smart contract",
    "version": 1
  },
  "userdoc": {
    "kind": "user",
    "methods": {
      "bazookaToEth(uint256)": {
        "notice": "Change BZK for ETH"
      },
      "depositLiquidity()": {
        "notice": "Lets you deposit liquidity to an exchange"
      },
      "ethToBazooka()": {
        "notice": "Change ETH for BZK"
      },
      "init(uint256)": {
        "notice": "Initializes DEX with liquidity"
      },
      "price(uint256,uint256,uint256)": {
        "notice": "Calculates price of a pair based on current reserve"
      },
      "withdrawLiquidity(uint256)": {
        "notice": "Lets you withdraw liquidity from a contract"
      }
    },
    "notice": "This contract gives you ability to trade between Eth and Bazooka coins",
    "version": 1
  }
}